{
  "_format": "hh-sol-artifact-1",
  "contractName": "Saft",
  "sourceName": "contracts/Saft.sol",
  "abi": [
    {
      "inputs": [
        {
          "internalType": "address",
          "name": "_tokenContractAddress",
          "type": "address"
        }
      ],
      "stateMutability": "nonpayable",
      "type": "constructor"
    },
    {
      "inputs": [
        {
          "internalType": "address",
          "name": "",
          "type": "address"
        }
      ],
      "name": "claimed",
      "outputs": [
        {
          "internalType": "uint256",
          "name": "",
          "type": "uint256"
        }
      ],
      "stateMutability": "view",
      "type": "function"
    },
    {
      "inputs": [
        {
          "internalType": "address",
          "name": "_beneficiary",
          "type": "address"
        },
        {
          "internalType": "uint256",
          "name": "_amount",
          "type": "uint256"
        },
        {
          "internalType": "uint256",
          "name": "_unlockTimestamp",
          "type": "uint256"
        }
      ],
      "name": "lock",
      "outputs": [],
      "stateMutability": "nonpayable",
      "type": "function"
    },
    {
      "inputs": [
        {
          "internalType": "address",
          "name": "_beneficiary",
          "type": "address"
        }
      ],
      "name": "unlock",
      "outputs": [],
      "stateMutability": "nonpayable",
      "type": "function"
    },
    {
      "inputs": [
        {
          "internalType": "address",
          "name": "",
          "type": "address"
        },
        {
          "internalType": "uint256",
          "name": "",
          "type": "uint256"
        }
      ],
      "name": "vestedTokens",
      "outputs": [
        {
          "internalType": "uint256",
          "name": "unlockTimestamp",
          "type": "uint256"
        },
        {
          "internalType": "uint256",
          "name": "amount",
          "type": "uint256"
        }
      ],
      "stateMutability": "view",
      "type": "function"
    }
  ],
  "bytecode": "0x608060405234801561001057600080fd5b50604051610bb8380380610bb8833981810160405281019061003291906100db565b806000806101000a81548173ffffffffffffffffffffffffffffffffffffffff021916908373ffffffffffffffffffffffffffffffffffffffff16021790555050610108565b600080fd5b600073ffffffffffffffffffffffffffffffffffffffff82169050919050565b60006100a88261007d565b9050919050565b6100b88161009d565b81146100c357600080fd5b50565b6000815190506100d5816100af565b92915050565b6000602082840312156100f1576100f0610078565b5b60006100ff848285016100c6565b91505092915050565b610aa1806101176000396000f3fe608060405234801561001057600080fd5b506004361061004c5760003560e01c80631a64adae146100515780632f6c493c14610082578063c884ef831461009e578063e2ab691d146100ce575b600080fd5b61006b60048036038101906100669190610667565b6100ea565b6040516100799291906106b6565b60405180910390f35b61009c600480360381019061009791906106df565b61012b565b005b6100b860048036038101906100b391906106df565b6103f8565b6040516100c5919061070c565b60405180910390f35b6100e860048036038101906100e39190610727565b610410565b005b6001602052816000526040600020818154811061010657600080fd5b9060005260206000209060020201600091509150508060000154908060010154905082565b600080600090505b600160008473ffffffffffffffffffffffffffffffffffffffff1673ffffffffffffffffffffffffffffffffffffffff1681526020019081526020016000208054905081101561026b5742600160008573ffffffffffffffffffffffffffffffffffffffff1673ffffffffffffffffffffffffffffffffffffffff16815260200190815260200160002082815481106101cf576101ce61077a565b5b906000526020600020906002020160000154101561025857600160008473ffffffffffffffffffffffffffffffffffffffff1673ffffffffffffffffffffffffffffffffffffffff16815260200190815260200160002081815481106102385761023761077a565b5b9060005260206000209060020201600101548261025591906107d8565b91505b80806102639061080c565b915050610133565b506000600260008473ffffffffffffffffffffffffffffffffffffffff1673ffffffffffffffffffffffffffffffffffffffff16815260200190815260200160002054826102b99190610854565b9050600081116102fe576040517f08c379a00000000000000000000000000000000000000000000000000000000081526004016102f5906108e5565b60405180910390fd5b80600260008573ffffffffffffffffffffffffffffffffffffffff1673ffffffffffffffffffffffffffffffffffffffff168152602001908152602001600020600082825461034d91906107d8565b9250508190555060008054906101000a900473ffffffffffffffffffffffffffffffffffffffff1673ffffffffffffffffffffffffffffffffffffffff1663a9059cbb84836040518363ffffffff1660e01b81526004016103af929190610914565b6020604051808303816000875af11580156103ce573d6000803e3d6000fd5b505050506040513d601f19601f820116820180604052508101906103f29190610975565b50505050565b60026020528060005260406000206000915090505481565b6064600160008573ffffffffffffffffffffffffffffffffffffffff1673ffffffffffffffffffffffffffffffffffffffff1681526020019081526020016000208054905010610495576040517f08c379a000000000000000000000000000000000000000000000000000000000815260040161048c90610a14565b60405180910390fd5b60008054906101000a900473ffffffffffffffffffffffffffffffffffffffff1673ffffffffffffffffffffffffffffffffffffffff166323b872dd3330856040518463ffffffff1660e01b81526004016104f293929190610a34565b6020604051808303816000875af1158015610511573d6000803e3d6000fd5b505050506040513d601f19601f820116820180604052508101906105359190610975565b50600160008473ffffffffffffffffffffffffffffffffffffffff1673ffffffffffffffffffffffffffffffffffffffff168152602001908152602001600020604051806040016040528083815260200184815250908060018154018082558091505060019003906000526020600020906002020160009091909190915060008201518160000155602082015181600101555050505050565b600080fd5b600073ffffffffffffffffffffffffffffffffffffffff82169050919050565b60006105fe826105d3565b9050919050565b61060e816105f3565b811461061957600080fd5b50565b60008135905061062b81610605565b92915050565b6000819050919050565b61064481610631565b811461064f57600080fd5b50565b6000813590506106618161063b565b92915050565b6000806040838503121561067e5761067d6105ce565b5b600061068c8582860161061c565b925050602061069d85828601610652565b9150509250929050565b6106b081610631565b82525050565b60006040820190506106cb60008301856106a7565b6106d860208301846106a7565b9392505050565b6000602082840312156106f5576106f46105ce565b5b60006107038482850161061c565b91505092915050565b600060208201905061072160008301846106a7565b92915050565b6000806000606084860312156107405761073f6105ce565b5b600061074e8682870161061c565b935050602061075f86828701610652565b925050604061077086828701610652565b9150509250925092565b7f4e487b7100000000000000000000000000000000000000000000000000000000600052603260045260246000fd5b7f4e487b7100000000000000000000000000000000000000000000000000000000600052601160045260246000fd5b60006107e382610631565b91506107ee83610631565b9250828201905080821115610806576108056107a9565b5b92915050565b600061081782610631565b91507fffffffffffffffffffffffffffffffffffffffffffffffffffffffffffffffff8203610849576108486107a9565b5b600182019050919050565b600061085f82610631565b915061086a83610631565b9250828203905081811115610882576108816107a9565b5b92915050565b600082825260208201905092915050565b7f4e6f7468696e6720746f20636c61696d00000000000000000000000000000000600082015250565b60006108cf601083610888565b91506108da82610899565b602082019050919050565b600060208201905081810360008301526108fe816108c2565b9050919050565b61090e816105f3565b82525050565b60006040820190506109296000830185610905565b61093660208301846106a7565b9392505050565b60008115159050919050565b6109528161093d565b811461095d57600080fd5b50565b60008151905061096f81610949565b92915050565b60006020828403121561098b5761098a6105ce565b5b600061099984828501610960565b91505092915050565b7f4c696d6974206f6620313030206c6f636b73207065722061646472657373207460008201527f6f2061766f696420756e626f756e646564206c6f6f7000000000000000000000602082015250565b60006109fe603683610888565b9150610a09826109a2565b604082019050919050565b60006020820190508181036000830152610a2d816109f1565b9050919050565b6000606082019050610a496000830186610905565b610a566020830185610905565b610a6360408301846106a7565b94935050505056fea2646970667358221220ac5345db0cbe67bc128a09e40ef61042fe63c6e52105f986e83491d1a3f6ff5864736f6c63430008110033",
  "linkReferences": {},
  "deployedLinkReferences": {}
}